{
  "abi": [
    {
      "inputs": [
        {
          "internalType": "address",
          "name": "_token",
          "type": "address"
        }
      ],
      "stateMutability": "nonpayable",
      "type": "constructor"
    },
    {
      "inputs": [
        {
          "internalType": "uint256",
          "name": "_amount",
          "type": "uint256"
        }
      ],
      "name": "deposit",
      "outputs": [],
      "stateMutability": "nonpayable",
      "type": "function"
    },
    {
      "inputs": [
        {
          "internalType": "uint256",
          "name": "_amount",
          "type": "uint256"
        },
        {
          "internalType": "address",
          "name": "_owner",
          "type": "address"
        },
        {
          "internalType": "address",
          "name": "_spender",
          "type": "address"
        },
        {
          "internalType": "uint256",
          "name": "_value",
          "type": "uint256"
        },
        {
          "internalType": "uint256",
          "name": "_deadline",
          "type": "uint256"
        },
        {
          "internalType": "uint8",
          "name": "_v",
          "type": "uint8"
        },
        {
          "internalType": "bytes32",
          "name": "_r",
          "type": "bytes32"
        },
        {
          "internalType": "bytes32",
          "name": "_s",
          "type": "bytes32"
        }
      ],
      "name": "depositWithPermit",
      "outputs": [],
      "stateMutability": "nonpayable",
      "type": "function"
    },
    {
      "inputs": [
        {
          "internalType": "address",
          "name": "",
          "type": "address"
        }
      ],
      "name": "userBalances",
      "outputs": [
        {
          "internalType": "uint256",
          "name": "",
          "type": "uint256"
        }
      ],
      "stateMutability": "view",
      "type": "function"
    }
  ],
  "bytecode": {
    "object": "0x608060405234801561001057600080fd5b5060405161046938038061046983398101604081905261002f91610054565b600080546001600160a01b0319166001600160a01b0392909216919091179055610084565b60006020828403121561006657600080fd5b81516001600160a01b038116811461007d57600080fd5b9392505050565b6103d6806100936000396000f3fe608060405234801561001057600080fd5b50600436106100415760003560e01c806301ab5add1461004657806326224c641461005b578063b6b55f251461008d575b600080fd5b6100596100543660046102a0565b6100a0565b005b61007b61006936600461031c565b60016020526000908152604090205481565b60405190815260200160405180910390f35b61005961009b36600461033e565b6101e1565b60005460405163d505accf60e01b81526001600160a01b0389811660048301528881166024830152604482018890526064820187905260ff8616608483015260a4820185905260c482018490529091169063d505accf9060e401600060405180830381600087803b15801561011457600080fd5b505af1158015610128573d6000803e3d6000fd5b50506000546040516323b872dd60e01b81526001600160a01b038b81166004830152306024830152604482018d905290911692506323b872dd91506064016020604051808303816000875af1158015610185573d6000803e3d6000fd5b505050506040513d601f19601f820116820180604052508101906101a99190610357565b506001600160a01b038716600090815260016020526040812080548a92906101d2908490610379565b90915550505050505050505050565b6000546040516323b872dd60e01b8152336004820152306024820152604481018390526001600160a01b03909116906323b872dd906064016020604051808303816000875af1158015610238573d6000803e3d6000fd5b505050506040513d601f19601f8201168201806040525081019061025c9190610357565b50336000908152600160205260408120805483929061027c908490610379565b909155505050565b80356001600160a01b038116811461029b57600080fd5b919050565b600080600080600080600080610100898b0312156102bd57600080fd5b883597506102cd60208a01610284565b96506102db60408a01610284565b9550606089013594506080890135935060a089013560ff811681146102ff57600080fd5b979a969950949793969295929450505060c08201359160e0013590565b60006020828403121561032e57600080fd5b61033782610284565b9392505050565b60006020828403121561035057600080fd5b5035919050565b60006020828403121561036957600080fd5b8151801515811461033757600080fd5b8082018082111561039a57634e487b7160e01b600052601160045260246000fd5b9291505056fea2646970667358221220d958e81fb5b2232d35b31a34368a68d07931ebfcc7033c466d726d35756b407d64736f6c63430008110033",
    "linkReferences": {}
  },
  "methodIdentifiers": {
    "deposit(uint256)": "b6b55f25",
    "depositWithPermit(uint256,address,address,uint256,uint256,uint8,bytes32,bytes32)": "01ab5add",
    "userBalances(address)": "26224c64"
  },
  "id": 15
}